:100000000C9430160C9458160C9458160C94D51E5B
:100010000C94D51E0C94D51E0C9458160C9458169E
:100020000C9458160C9458160C9458160C94581698
:100030000C9458160C9458160C9458160C94581688
:100040000C944E1A0C9458160C944E190C942819B2
:100050000C9458160C9458160C9458160C94581668
:100060000C94DF1E0C945816013051337730513305
:100070005133E532C33151335133E5325133E53237
:10008000C6315133D1325133553351335133E532C7
:100090005133E5325133E832513351335133513317
:1000A000513351335133513351333333442134219C
:1000B0003721FA20FA203A213D2140214221FA201D
:1000C000FA20FA20FA20FA20FA20FA20FA200B214E
:1000D00011211721262113221A2226223722392202
:1000E00040224C225D2273227522000A0AFFFE057F
:1000F000016C02C820FFFE08FE06FE0000000200A0
:100100000001060603010080808080008003030355
:10011000040004A0A0A005050506000050F850F852
:10012000500307070400FF4060804020C0400505E1
:1001300005060000C8D020589805060606000040B5
:10014000A040A090680103030200048080800207A1
:10015000070300FF40808080808040020707030083
:10016000FF80404040404080030303040003A04060
:10017000A003030305010140E0400203030300FE66
:10018000C04080030101040002E0010101020000FF
:10019000800306060400FF20204040808003050500
:1001A00004000040A0A0A04002050503000040C0DC
:1001B00040404004050505000060902040F0040523
:1001C00005050000E0106010E00405050500009042
:1001D00090907010040505050000F080E010E00428
:1001E00005050500006080E090600405050500003D
:1001F000F0102040800405050500006090609060CC
:100200000405050500006090701060010303030100
:10021000008000800205050300FE4000404080048D
:100220000505050000106080601003030304000151
:10023000E000E00405050500008060106080040611
:1002400006050000609020400040050606060000FC
:100250007088A8B08070040505050000609090F0DB
:1002600090040505050000E090E090E00405050518
:1002700000006090809060040505050000E090900B
:1002800090E0040505050000F080E080F00405051D
:10029000050000F080E08080040505050000608016
:1002A000B090600405050500009090F09090030563
:1002B00005040000E0404040E00405050500007032
:1002C00010109060040505050000909090E09003E8
:1002D000050504000080808080E00505050600001B
:1002E000D8A8A8A8880405050500009090D0B09073
:1002F0000405050500006090909060040505050068
:1003000000E09090E08004050505000060909050AA
:10031000E0040505050000E09090E0900305050469
:10032000000060804020C0030505040000E040405C
:10033000404004050505000090909090600505057B
:1003400006000088505050200505050600008888EA
:1003500088A8500405050500009090906090040660
:10036000060500FF909090701060040505050000E0
:10037000F0204080F00207070300FFC080808080EB
:1003800080C00306060400FF808040402020020752
:10039000070300FFC04040404040C0030202040089
:1003A0000440A00401010500FFF002020203000561
:1003B0008040040404050000609090700405050569
:1003C000000080E0909060030404040000608080DE
:1003D0006004050505000010709090600404040599
:1003E00000006090A070040505050000609080C0CA
:1003F000800406060500FE609090701060040505FC
:1004000005000080E090909001050502000080004A
:1004100080808003070703FFFE200020202020C0EB
:1004200003050504000080A0C0A0A001050502008E
:10043000008080808080050404060000D0A8A88881
:10044000040404050000E0909090040404050000FA
:10045000609090600406060500FE609090E0808049
:100460000406060500FE6090907010100404040558
:100470000000E0908080040404050000704020E04B
:1004800003050504000040E040404004040405006A
:100490000090909070040404050000909090600516
:1004A000040406000088A8A8500404040500009075
:1004B0009060900406060500FE9090907010600415
:1004C0000404050000F02040F00307070400FF20AB
:1004D0004040804040200107070200FF808080806C
:1004E0008080800307070400FF8040402040408058
:1004F00005030306000140A810FFFFFFFFFFFFFFF9
:10050000FFFFFFFFFFFFFFFFFFFFFFFFFFFFFFFFFB
:10051000FFFFFFFFFFFFFFFFFFFFFF0106060301D5
:10052000FF8000808080800406060500FF1070A018
:10053000A0704004060605000060D040E040F004D2
:100540000404050001F09090F00507070600FF88FD
:100550005020702070200107070200FF808080007B
:100560008080800407070500FF708060906010E0C5
:10057000030101040005A00707070800FF38449A9B
:10058000A29A443803030304000460A0E0040303B8
:1005900005000150A050050303060001F8080802F9
:1005A0000101030002C00707070800FF3844B2BA80
:1005B000AA4438040101050005F003030304000404
:1005C00040A04003050504000040E04000E00304B3
:1005D00004040004C02040E0030404040004E020FC
:1005E00060E002020203000540800506060600FEE8
:1005F000909090F8808005060606000078E8E8688C
:100600002828010101030102800303030400FE40C6
:1006100020C003040404000440C040E004040405B6
:10062000000460909060040303050001A050A0073F
:1006300006060800008890A02A4E820706060800D9
:10064000008890A42A448E09060C0A0000E2006487
:1006500000E8000A80138020800406060500FF20C1
:1006600000204090600408080500004020006090D1
:1006700090F090040808050000204000609090F081
:1006800090040808050000609000609090F09004CD
:10069000080805000050A000609090F09004070743
:1006A0000500005000609090F090040707050000DE
:1006B0006000609090F0900705050800007E909C17
:1006C000F09E0407070500FE6090809060204004C3
:1006D0000808050000402000F080E080F0040808D1
:1006E000050000204000F080E080F00408080500CC
:1006F00000609000F080E080F004070705000050E3
:1007000000F080E080F0030808040000804000E072
:10071000404040E0030808040000204000E0404062
:1007200040E003080804000040A000E0404040E032
:10073000030707040000A000E0404040E005050575
:100740000600007048E8487004080805000050A042
:10075000009090D0B0900408080500004020006090
:100760009090906004080805000020400060909080
:100770009060040808050000609000609090906010
:1007800004080805000050A00060909090600407E5
:100790000705000050006090909060030303040080
:1007A00001A040A0060505070000304C78C83004C1
:1007B0000808050000402000909090906004080810
:1007C000050000204000909090906004080805000B
:1007D0000060900090909090600407070500005022
:1007E0000090909090600409090500FF204000905F
:1007F000909070106004060605000080E09090E084
:10080000800405050500006090A090A0040707057E
:100810000000402000609090700407070500002051
:100820004000609090700407070500006090006031
:1008300090907004070705000050A0006090907031
:10084000040606050000500060909070040707053C
:100850000000606000609090700704040800006C65
:1008600092947E0306060400FE60808060204004AF
:1008700007070500004020006090A07004070705EE
:1008800000002040006090A0700407070500006091
:1008900090006090A0700406060500005000609073
:1008A000A07002060603000080400040404002069F
:1008B00006030000408000808080030606040000DC
:1008C00040A000404040030505040000A000404057
:1008D0004005060606000060187090906004070747
:1008E00005000050A000E09090900407070500006C
:1008F0004020006090906004070705000020400041
:100900006090906004070705000060900060909080
:100910006004070705000050A00060909060040686
:100920000605000050006090906005050506000077
:100930002000F8002004040405000060B0D060042A
:1009400007070500004020009090907004070705FD
:1009500000002040009090907004070705000060A0
:100960009000909090700406060500005000909052
:1009700090700409090500FE2040009090907010CE
:10098000600408080500FE8080E09090E08080040C
:1009900008080500FE5000909090701060000A104A
:1009A000FEFC060197031520FFFE09FE07FE00006E
:1009B0000006000101070706020080808080800099
:1009C00080030303060104A0A0A00508080601FF98
:1009D0005050F85050F850500408080601FF20709D
:1009E000806010906020060707060000E0A4C83071
:1009F0005C94180606060600003040609488740176
:100A000003030602048080800309090602FE2040D9
:100A1000408080804040200309090601FE8040405C
:100A200020202040408005040406000320D82050E8
:100A30000505050600012020F82020020303060119
:100A4000FE404080040101060103F001020206029B
:100A50000080800609090600FF04081010202040CD
:100A60004080040707060100609090909090600419
:100A7000070706010020E020202020F004070706D9
:100A80000100609010204080F0040707060100601C
:100A9000901060109060050707060000103050901D
:100AA000F81010040707060100F08080E01010E045
:100AB000040707060100708080E09090600407073B
:100AC000060100F0901020204040040707060100B6
:100AD000609090609090600407070601006090901D
:100AE000701010E001050506020080800080800281
:100AF00006060601FE404000404080030505060151
:100B0000012040804020040303060102F000F003AE
:100B1000050506020180402040800406060601000B
:100B20006090204000400608080600FF38449CA85A
:100B3000A89C40380606060600007028487848CC75
:100B4000050606060000F048704848F00406060650
:100B50000100609080809060050606060000F04865
:100B6000484848F0050606060000F848704048F876
:100B7000050606060000F848705040E00406060628
:100B80000100609080B09060060606060000CC4828
:100B9000784848CC050606060100F820202020F8F9
:100BA00005060606010078101090906006060606FD
:100BB0000000D850605048E4050606060100E040F9
:100BC000404048F805060606010088D8A8A888D83D
:100BD000060606060000DC48685848C804060606F3
:100BE0000100609090909060050606060100F048B4
:100BF000487040E00407070601FF60909090906005
:100C000070060606060000F048487048E404060630
:100C10000601007080601090E0050606060000F8EE
:100C2000A820202070060606060000CC4848484848
:100C300030060606060000DC8850505020060606E6
:100C4000060000DC88A8A85050050606060100D85A
:100C500050202050D8050606060100D888502020D4
:100C600070040606060100F090204090F002090989
:100C70000602FEC080808080808080C00509090651
:100C800001FF808040402020101008020909060260
:100C9000FEC040404040404040C005030306010400
:100CA0002050880601010600FEFC02020206010631
:100CB0008040050505060000601070906805070774
:100CC000060000C04070484848F0040505060100D1
:100CD00060908090600507070601003010709090CA
:100CE00090680405050601006090E0906004070725
:100CF0000601003040F0404040F00507070601FEC5
:100D0000689090907010E0060707060000C04070E1
:100D1000484848EC05070706010020006020202015
:100D2000F80309090601FE2000E02020202020C051
:100D3000050707060000C04058506050D805070757
:100D4000060100602020202020F80605050600008E
:100D5000D0A8A8A8AC060505060000B0484848EC95
:100D600004050506010060909090600507070600E5
:100D7000FEB04848487040F00507070601FE68903D
:100D80009090701038050505060100B8404040F00D
:100D900004050506010070806010E00507070601E4
:100DA000004040F040404830060505060000D848A5
:100DB000484834060505060000CC442828100605DE
:100DC00005060000ACA8A85050050505060000D88F
:100DD000502050D80507070600FED8484848302064
:100DE000C0040505060100F0204090F00309090643
:100DF00002FE204040408040404020010909060298
:100E0000FE8080808080808080800309090602FE49
:100E100080404040204040408004020206010350D0
:100E2000A0FFFFFFFFFFFFFFFFFFFFFFFFFFFFFF31
:100E3000FFFFFFFFFFFFFFFFFFFFFFFFFFFFFFFFC2
:100E4000FFFF0000000600010107070602FE800008
:100E500080808080800408080601FF202070808048
:100E60007020200607070600003840F8202044FCC8
:100E70000505050600018870507088050707060003
:100E8000008850F820F820700109090602FE8080D1
:100E9000800000808080800408080601FF70806068
:100EA00090906010E0030101060205A00607070606
:100EB00000003048B4A4B44830040505060101E040
:100EC00010D000F00603030600016CD86C05030384
:100ED000060002F80808040101060103F0060707EE
:100EE0000600003048BCB4AC4830040101060105DE
:100EF000F004030306010460906005060606000086
:100F00002020F82000F803040406020360A040E05B
:100F1000030404060203E04020C0020202060205A8
:100F200040800607070600FED8484848744040063F
:100F300008080600FF7CA8A8682828286C0102027F
:100F400006020280800303030601FE4020C0030462
:100F500004060203C04040E004050506010160905C
:100F60006000F0060303060101D86CD806070706E7
:100F70000000C04448F42C5C84060707060000C04B
:100F80004448FC34489C060707060000E04428D487
:100F90002C5C840407070600FE200020204090609F
:100FA0000609090600002010007028487848CC0681
:100FB00009090600001020007028487848CC06096E
:100FC000090600002050007028487848CC0609091E
:100FD0000600002850007028487848CC060808060B
:100FE000000050007028487848CC06090906000027
:100FF0001028107028487848CC0606060600007CA9
:10100000305C70909C0408080601FE60908080901F
:101010006020C0050909060000201000F848704053
:1010200048F8050909060000102000F848704048FB
:10103000F8050909060000205000F848704048F8FB
:101040000508080600005000F848704048F80509F7
:1010500009060000402000F820202020F80509099A
:10106000060000102000F820202020F805090906BD
:101070000000205000F820202020F8050808060075
:10108000005000F820202020F8050606060000F099
:1010900048E84848F0060909060000285000DC48E6
:1010A000685848C804090906010040200060909073
:1010B0009090600409090601002040006090909023
:1010C0009060040909060100205000609090909003
:1010D0006004090906010050A000609090909060A3
:1010E000040808060100A00060909090906005053B
:1010F00005060001885020508806060606000034C8
:1011000048586848B0060909060000201000CC487D
:1011100048484830060909060000102000CC48481D
:10112000484830060909060000102800CC48484805
:1011300048300608080600005000CC4848484830AF
:10114000050909060000102000D8885020207005ED
:101150000606060000C070487040E006060606005D
:10116000003048584454C8050808060000402000D4
:1011700060107090680508080600001020006010DC
:1011800070906805080806000020500060107090FC
:101190006805080806000050A000601070906805FF
:1011A00007070600005000601070906805090906E6
:1011B00000002050200060107090680605050600B1
:1011C000006C947C90EC0407070601FE6090809010
:1011D0006020C00408080601004020006090F080F4
:1011E000700408080601002040006090F080700440
:1011F000080806010040A0006090F0807004070716
:10120000060100A0006090F080700508080600004C
:1012100040200060202020F805080806000010206B
:101220000060202020F8050808060000205000601B
:10123000202020F80507070600005000602020202D
:10124000F8040808060100D060A070909090600635
:101250000808060000285000B0484848EC04080878
:10126000060100402000609090906004080806018C
:101270000010200060909090600408080601004073
:10128000A000609090906004080806010050A00043
:101290006090909060040707060100A000609090A5
:1012A00090600505050600012000F80020060606EE
:1012B0000600000438586848B006080806000020F8
:1012C0001000D848484834060808060000102000DE
:1012D000D848484834060808060000205000D8487E
:1012E0004848340607070600005000D848484834EC
:1012F000050A0A0600FE102000D84848483020C0E1
:101300000509090600FEC040704848487040E005E5
:1013100009090600FE5000D84848483020C0000B9C
:1013200011FFFC0901C0038820FFFC0DFC09FC0033
:101330000000040000010909030100808080808012
:1013400080008080030202050107A0A005050507B3
:10135000010050F850F85005090907010070A8A0D5
:10136000702828A8A8700509090701008890102096
:101370002020404888070909090100708888708882
:1013800088888A7401020203010780800509090721
:10139000010018204040804040201805090907013D
:1013A00000C020101008101020C005070707010119
:1013B00020A8702070A8200505050701012020F84D
:1013C00020200202020401FF408005010107010301
:1013D000F801010103010080050909070100081057
:1013E00010202020404080050909060000708888F0
:1013F0008888888888700509090600002060A02078
:1014000020202020F80509090600007088880810AF
:10141000204080F805090906000070880830080897
:10142000088870050909060000088888F808080877
:101430000808050909060000F88080F808080888EF
:1014400070050909060000708880F0888888887017
:10145000050909060000F8081020404040404005FA
:1014600009090600007088887088888888700509D6
:1014700009060000708888887808088870010404CC
:10148000030100800000800205050401FF40000008
:101490004080050909070100081020408040201005
:1014A00008050303070102F800F805090907010010
:1014B00080402010081020408005090907010070B5
:1014C00088081020200020200908100B01007E0051
:1014D00081009900A500A5009A0080807F00050981
:1014E00009060000708888F88888888888050909B6
:1014F000060000F08888F088888888F005090906C9
:10150000000070888080808080887005090906004E
:1015100000F088888888888888F005090906000016
:10152000F88080F080808080F8050909060000F8C6
:101530008080F08080808080050909060000708826
:1015400080B888888888700509090600008888881E
:10155000F8888888888801090902000080808080D6
:1015600080808080800509090600000808080808B6
:1015700008088870050909060000888890A0C0A0A6
:10158000908888050909060000808080808080801E
:1015900080F807090908000082C6AA928282828226
:1015A0008205090906000088C8A898888888888864
:1015B0000509090600007088888888888888700571
:1015C0000909060000F08888F08080808080050985
:1015D000090600007088888888A8A8A870050909ED
:1015E000060000F08888F088888888880509090640
:1015F0000000708880700808888870050909060056
:1016000000F82020202020202020050909060000C5
:101610008888888888888888700509090600008875
:101620008888505050502020070909080000828205
:101630008254545428282805090906000088885037
:1016400020205088888805090906000088885020D5
:101650002020202020050909060000F80808102095
:10166000408080F8030909050100E08080808080C7
:101670008080E00507070701008040402010100827
:10168000030909050100E020202020202020E0039C
:10169000020205010A40A0060101080100FC020245
:1016A0000204010A4080050606060000708888884A
:1016B0008878050909060000808080F0888888887D
:1016C000700506060600007088808088700509098C
:1016D00006000008080878888888887805060606C5
:1016E00000007088F88088700509090600003048FD
:1016F00040E04040404040050A0A0600FC708888EF
:1017000088887808088870050909060000808080AC
:10171000B0C888888888010909020000808000809C
:101720008080808080020D0D0300FC40400040401E
:10173000404040404040408005090906000080804C
:101740008090A0C0A09088010909020000808080DC
:10175000808080808080070606080000B6DA9292BA
:101760009292050606060000B0C88888888805069B
:1017700006060000708888888870050A0A0600FC42
:101780007088888888F080808080060A0A0700FCBC
:10179000788888888878081C0808040606050000F0
:1017A000B0C080808080050606060000708070084A
:1017B0008870040909050000404040F04040404066
:1017C0004005060606000088888888887005060699
:1017D0000600008888505020200706060800008276
:1017E0008254542828050606060000885020205000
:1017F00088050A0A0600FC8888888888780808888E
:10180000700506060600007888102040F8060909D1
:101810000801000C102020C02020100C0109090331
:101820000100808080808080808080060909080116
:1018300000C02010100C101020C005020206000A83
:10184000E8B8FFFFFFFFFFFFFFFFFFFFFFFFFFFF06
:10185000FFFFFFFFFFFFFFFFFFFFFFFFFFFFFFFF98
:10186000FFFFFFFF010909020000808000808080E7
:101870008080800507070701002070A8A0A87020BD
:101880000509090701008080F08080808888F805BC
:1018900005050701018870507088050909070100D6
:1018A0008888502020F820F82001090903010080D1
:1018B0008080000000808080060A0A08010078808D
:1018C00078847804040484780501010701038807FB
:1018D00007070901007C82BAA2BA827C06080808C0
:1018E000010070888888887400FC050303070102E2
:1018F000489048050202070102F8080000000800AD
:10190000000707070901007C82BAA2A2827C0501B8
:1019100001060006F803030305010240A040050785
:10192000070701002020F8202000F8FFFFFF00003B
:1019300000080000FF000000080000FFFFFF050393
:1019400003070102904890FFFFFFFF050C0C060003
:1019500000402000708888F88888888888050C0CEA
:10196000060000102000708888F88888888888051C
:101970000C0C060000205000708888F88888888841
:1019800088050C0C060000E8B800708888F8888884
:10199000888888050B0B0600005000708888F8883E
:1019A00088888888050D0D0600002050200070886A
:1019B00088F888888888880909120A00007F80884A
:1019C000008800FF0088008800880088008F80055C
:1019D00009090600FE708880808088702060050CF0
:1019E0000C060000402000F88080F080808080F8A5
:1019F000050C0C060000102000F88080F08080802C
:101A000080F8050C0C060000205000F88080F08063
:101A1000808080F8050B0B0600005000F88080F0F5
:101A200080808080F8020C0C020000804000404062
:101A300040404040404040020C0C0200004080000A
:101A4000808080808080808080030C0C02FF0040BA
:101A5000A000404040404040404040030B0B02FF8C
:101A600000A0004040404040404040400509090679
:101A70000000F08888E888888888F0050C0C06004B
:101A800000E8B800888888C8A898888888050C0C61
:101A90000600004020007088888888888888700543
:101AA0000C0C0600001020007088888888888888C0
:101AB00070050C0C0600002050007088888888880B
:101AC000888870050C0C060000E8B80070888888CB
:101AD0008888888870050B0B060000500070888885
:101AE000888888888870030303060102A040A00745
:101AF00009090800003A444C5454546444B8050C95
:101B00000C060000402000888888888888888870B3
:101B1000050C0C06000010200088888888888888BA
:101B20008870050C0C060000205000888888888882
:101B300088888870050B0B0600005000888888880C
:101B40008888888870050C0C0600001020008888A2
:101B5000502020202020200509090600008080F068
:101B600088F080808080050B0B0600FEF088B0882E
:101B70008888B08080808005090906000040200028
:101B80007088888888780509090600001020007090
:101B90008888888878050909060000205000708828
:101BA00088888878050909060000E8B800708888E8
:101BB00088887805080806000050007088888888A2
:101BC00078050A0A0600002050200070888888885E
:101BD0007809060C0A0000770088808F80880088CA
:101BE0008077000508080600FE70888080887020D5
:101BF000400506060600007088F880887005060615
:101C00000600007088F880887005060606000070DF
:101C100088F88088700506060600007088F88088BD
:101C200070020A0A0300008040000040404040402B
:101C300040020A0A0300004080000080808080800B
:101C400080030A0A04000040A000004040404040D9
:101C500040030909040000A000004040404040400B
:101C600005090906000008380878888888887805FA
:101C70000909060000E8B800B0C888888888050906
:101C800009060000402000708888888870050909CE
:101C900006000010200070888888887005090906F1
:101CA00000002050007088888888700509090600A7
:101CB00000E8B80070888888887005080806000069
:101CC000500070888888887005050506000120008E
:101CD000F800200506060600007098A8A8C8700540
:101CE0000909060000402000888888888870050956
:101CF0000906000010200088888888887005090976
:101D0000060000205000888888888870050808062A
:101D100000005000888888888870050D0D0600FC3A
:101D2000102000888888888878080888700506064A
:101D300005000080F088F08080050C0C0600FC5047
:101D40000088888888887808088870001414FFFC48
:101D50000B025104D320FFFD10FC0BFD0000000519
:101D60000000010B0B050200808080808080808055
:101D7000800080050505070106D8D8989890090BC2
:101D8000160B01000900090013007F8012002600D5
:101D9000FF002400640048004800070E0E0901FF00
:101DA000101078949490F07C161292D67C100C0B44
:101DB000160E010070809880890089009A0074E0F6
:101DC00005B009100910113010E0090B160B0100C5
:101DD00038004400440078007100D90089008F0069
:101DE0008600C7007D80020505060206C08080804F
:101DF00080020E0E0602FD4040C080808080808000
:101E00008080C04040020E0E0502FD808080C040F0
:101E10004040404040C08080800605050A020548D9
:101E200030FC30780909120F030008000800080090
:101E30000800FF80080008000800080002040404ED
:101E400001FEC0C08080040101060103F00102020E
:101E50000402008080040C0C0601FF1010102020EA
:101E600020404040408080060B0B08010078C88C61
:101E700084848484848CC878040B0B08020030703E
:101E8000D01010101010101010060B0B0801007865
:101E9000CCC4040C18103060C0FC070B0B08000009
:101EA0003C46C20618040602C2463C070B0B08015A
:101EB000000C1C14246444C4FE040404060B0B0828
:101EC0000100F88080B8CC8404048CC870070B0B28
:101ED0000801003CC68680BCC6828282C63C070BD5
:101EE0000B080100FE0606040C0818181030300616
:101EF0000B0B08010078CC84CC70C8848484CC7827
:101F0000070B0B0801007CC68282C67A020686CCCB
:101F10007801080804020080800000000080800230
:101F20000A0A0401FE40400000000040C0C08009D1
:101F300008100F0301008003001C00600080007087
:101F4000000E0001800904080F0303FF8000000059
:101F500000FF800908100F0301800060001C0003CF
:101F600000008007003800C000070B0B0800003C91
:101F7000C60206040810101000100D0E1C0F01FD03
:101F80000F8030606010CE909998908890889088EB
:101F900091989990CE60600030000F800B0B160B6B
:101FA000000006000E000A001B001900318031807D
:101FB0003FC060C04040C060080B0B0A0100FC86B7
:101FC000828286FC82818183FE080B0B0A01003E1F
:101FD00063C18080808080C1433E080B0B0A0100F2
:101FE000F8868283818181838286F8060B0B090142
:101FF00000FC80808080FC80808080FC060B0B08C9
:102000000100FC80808080FC8080808080090B162D
:102010000B01001E006180C08080008000878080EE
:10202000808080C08060803F80080B0B0A010081A7
:1020300081818181FF8181818181010B0B030100FD
:102040008080808080808080808080060B0B0801EB
:10205000000404040404040404848C78080B0B09B1
:102060000100868C98B0E0E0B0988C8683060B0B5C
:1020700007010080808080808080808080FC0B0B46
:10208000160D0100C060E0E0E0A0A1A0B1A0912089
:1020900093209A208A208E208420080B0B0A0100AE
:1020A000C1E1E1B1B199898D858783090B160B01D7
:1020B000003E006300C180818080808080808081BC
:1020C00080C10063003E00070B0B090100FC868203
:1020D0008286FC80808080800A0B160C01003E0006
:1020E0006300C18081808080808080808180C18009
:1020F00063003FC0070B0B090100FC86828286F853
:102100008486868282080B0B0A01003CC28380F021
:102110007E070181C37C090B160B0100FF800800BC
:10212000080008000800080008000800080008006F
:102130000800080B0B0A0100818181818181818166
:1021400083C23C090B160A0000C080418061806197
:102150000023003300120016001E000C000C000EBD
:102160000B160F0000C304438C438C66882688241A
:10217000D834503C50185018701820090B160B0119
:1021800000C1006300260034001C0018003C00263B
:10219000006200C3008180090B160A0100C1804162
:1021A000006300260034001C000800080008000836
:1021B000000800080B0B0A01007F0306060C183804
:1021C0003060E0FF030E0E0602FDE080808080801C
:1021D00080808080808080E0040C0C0601FF80807D
:1021E00080404040202020201010030E0E0601FDEC
:1021F000E0202020202020202020202020E0070A8E
:102200000A0F0400101028284844448282820801E2
:10221000010800FEFF02030303000980C040060816
:102220000808010078CC047CC4848C74070B0B096B
:102230000100808080BCC686828286C4B8060808F9
:1022400008010078CC84808084CC78070B0B0901CE
:10225000000202027AC686828286C63A060808080A
:10226000010078C484FC8084CC78050B0B07010046
:10227000382020F820202020202020070B0B0901E7
:10228000FD7AC686828286C67A06C678060B0B0859
:102290000100808080B8CC848484848484010B0B0A
:1022A0000301008000008080808080808080020E9A
:1022B0000E0401FD4000004040404040404040408E
:1022C00040C0060B0B0701008080808890A0E0A032
:1022D000B0988C010B0B030100808080808080808F
:1022E000808080800B08100D0100B9C0CE60842072
:1022F000842084208420842084200608080801008B
:10230000B8CC84848484848407080809010078C4D4
:1023100086828286C478070B0B0901FDBCC68682C3
:102320008286C6BC808080070B0B0901FD7AC686B9
:10233000828286C67A020202040808050100F0C003
:10234000808080808080060808080100788C80F0FA
:102350001C048C78040A0A0601002020F0202020AA
:1023600020202030060808080100848484848484A6
:10237000CC74080808080000C3426624243C1818DE
:102380000C08100C0000C63046304F206920296030
:1023900029C038C010C0070808080100C44C7830B4
:1023A0003078CC86080B0B0800FDC3426626343C0F
:1023B0001818181030050808070100F818102060D8
:1023C00040C0F8050F0F0701FC18302020202060C6
:1023D000C0602020202030180110100603FC8080EF
:1023E0008080808080808080808080808080050FD9
:1023F0000F0701FCC0602020202030183020202052
:102400002060C008020208000373CEFFFFFFFFFF39
:10241000FFFFFFFFFFFFFFFFFFFFFFFFFFFFFFFFCC
:10242000FFFFFFFFFFFFFFFFFFFFFFFF00000005B3
:102430000000010B0B0502FD800000808080808081
:10244000808080060C0C0801FE080878DC9490A0BF
:10245000A4EC784040070B0B0901003C664040F8B3
:102460004040404040FE0809090A0102815A2442C6
:102470004242245A81080B0B090000416322E714F1
:102480001CFF08080808010E0E0603FD80808080EE
:1024900080800000808080808080050E0E0701FD16
:1024A000788880C070D88898F030180818F0040137
:1024B0000104000A900B0B160D01001F007F8073B2
:1024C00040E160A020A020A120B3605E4060801F9A
:1024D0000006080806000338487848586800FC06DB
:1024E00006060801012448D8D848240803030A0135
:1024F00004FF0101FF0B0B160D01001F007F80512F
:1025000040D1609E2093209120D160404061801F87
:102510000004010104000AF0030404050107E0A01F
:10252000A0E0090A140F0300080008000800FF805B
:1025300008000800080000000000FF8004060606EE
:10254000010570903060C0F005060606000578C8E9
:1025500018308870030303030109604080FF070EF1
:102560000E0901FD7EF4F4F4F4741414141414141C
:10257000141401020204020480800403030501FD17
:102580003010E003060605010560A020202020058C
:10259000080807010370D88888D87000F806060676
:1025A000080101D848242448D80A0B160C01006100
:1025B00000A2002200240024002980098012803318
:1025C000C0208060800B0B160D01006080A10022EE
:1025D000002200240025C00920186010C02180615D
:1025E000E00B0B160C00007880098031001B008A7C
:1025F0000074C004C009400BE010403040060B0BD3
:102600000801FD100010103060C08084EC780B10C1
:10261000200B000018000800040000000000060065
:102620000E000A001B001900318031803FC060C0DD
:102630004040C0600B10200B0000030002000400AB
:102640000000000006000E000A001B001900318087
:1026500031803FC060C04040C0600B10200B0000C4
:1026600004000E0009000000000006000E000A0031
:102670001B001900318031803FC060C04040C06005
:102680000B0F1E0B00000D001600000000000600DE
:102690000E000A001B001900318031803FC060C06D
:1026A0004040C0600B0E1C0B000009000000000041
:1026B00006000E000B001B001900118030803FC087
:1026C00060C04060C0600B10200B00000E000A00CC
:1026D0000E000000000004000C000A000A001100B7
:1026E000110031803F8060C04040C0600D0B160E6D
:1026F000000003F805000D000D00190019F8310065
:102700003F0061004100C1F8080F0F0A01FC3E6163
:10271000C18080808080C1433E0C06021C061010E0
:102720000901004020100000FC80808080FC808037
:102730008080FC0610100901000810100000FC80C9
:10274000808080FC80808080FC06101009010030B1
:1027500030480000FC80808080FC80808080FC0607
:102760000F0F08010048000000FC80808080FC8082
:10277000808080FC03101003FF00C0402000002078
:1027800020202020202020202020031010030100E2
:1027900060C0800000808080808080808080808019
:1027A00003101003000040E0A00000404040404003
:1027B000404040404040040E0E04000090000040A5
:1027C000404040404040404040400A0B160B000053
:1027D0003E002180208020C02040F840204020C0C2
:1027E000208021803E00080F0F0A0100342C0000D9
:1027F000C1E1E1B1B199898D8587830910200B0171
:1028000000300010000800000000003E006300C11E
:102810008081808080808080808180C10063003ED4
:10282000000910200B010004000C0008000000004B
:10283000003E006300C18081808080808080808134
:1028400080C10063003E000910200B010008001C3D
:10285000001400000000003E006300C18081808001
:1028600080808080808180C10063003E00090F1E4F
:102870000B010018002C00000000003E006300C1A6
:102880008080808080808080808180C10077003E51
:1028900000090F1E0B010012000000000000003EA6
:1028A000006300C18081808080808080808180C1C1
:1028B0000063003E000707070F0401824428102828
:1028C0004482090D1A0B01FF00803F006300C380A2
:1028D00086808C8088809880B180E1006300FE0053
:1028E00080000810100A010020101800008181816A
:1028F0008181818181C3E63C0810100A01000C0827
:102900001000008181818181818181C3E63C0810B2
:10291000100A0100181824000081818181818181C1
:1029200081C3E63C080F0F0A0100240000008181EA
:1029300081818181818183C23C0910200A010006C6
:10294000000400080000000000C180410063002670
:102950000034001C000800080008000800080007F8
:102960000B0B0901008080FC86828286FC808080BF
:10297000070B0B08010078CC848C90909C8682B267
:102980009C060C0C0801002010100078CC047CC4BC
:10299000848C74060D0D080100181030200078CCCE
:1029A000047CC4848C74060C0C0801003068480058
:1029B00078CC047CC4848C74060B0B08010078006E
:1029C0000078CC047CC4848C74060B0B080100488E
:1029D000000078CC047CC4848C74060D0D080100C2
:1029E000304848300078C4047CC4848C740C0810CF
:1029F0000D0100FBC08A2004307FF0C4008C30CA77
:102A00006071C0060C0C0801FC78CC84808084CCFA
:102A10007830180830060D0D080100402020100005
:102A200078C484FC8084CC78060D0D080100081061
:102A300010200078C484FC8084CC78060C0C08013B
:102A4000003068480078C484FC8084CC78060B0B86
:102A500008010048000078CC84FC8084CC78020C0B
:102A60000C03000080404000404040404040404057
:102A7000030C0C03000020408000404040404040D8
:102A80004040050C0C03FF007050880020202020DF
:102A900020202020040B0B04000090000040404048
:102AA0004040404040070B0B0901006870887CC61D
:102AB00086828286C478060B0B080100780000B875
:102AC000CC848484848484070D0D09010060201067
:102AD000100078C486828286C478070D0D09010033
:102AE0000C1810200078C486828286C478070C0CEB
:102AF0000901003828440078C486828286C4780799
:102B00000B0B09010078000078C486828286C478A5
:102B1000070B0B09010048000078C486828286C436
:102B20007809070E0F0301080008000000FF80006D
:102B30000008000800080A0A0900FF013E62474930
:102B40005953627CC0060D0D080100402020100082
:102B5000848484848484CC74060D0D0801001810CC
:102B6000302000848484848484CC74060C0C080196
:102B70000030504800848484848484CC74060B0B19
:102B8000080100480000848484848484CC74080F85
:102B90000F0800FD04081000C3426626343C1818D4
:102BA000185070070E0E0901FD808080BCC6868219
:102BB0008286C6BC808080080E0E0800FD240000BE
:102BC000C3426624243C1818181030FFE0FFD1AF30
:102BD000FF32FFD0FFFEFFE0FFD1AEFFD0FFFEFFD0
:102BE000E0FFD11000FFFEFFD0FFE0FFC1FFD1AE3C
:102BF000D580A83FD300408D142000A1C8DA1281EF
:102C0000CFD9F1DB402EA4A6AFFFD0FFFE0000001D
:102C1000080002010000030407000000000000009B
:102C20000000000000250028002B00000000002408
:102C30000027002A0004040404040404040202021D
:102C400002020203030303030301020408102040ED
:102C500080010204081020010204081020005E35E3
:102C600011241FBECFEFD8E0DEBFCDBF12E0A0E041
:102C7000B1E0ECE0F3E702C005900D92A035B1079A
:102C8000D9F726E0A0E5B2E001C01D92A63AB2074E
:102C9000E1F716E1C0E3D6E104C02197FE010E94EE
:102CA0003439CF32D107C9F70E942A280C948439CD
:102CB0000C940000CF92DF92EF92FF920F931F933C
:102CC000CF93DF936C017A018B01C0E0D0E0CE1589
:102CD000DF0589F0D8016D918D01D601ED91FC9150
:102CE0000190F081E02DC6010995892B11F47E0138
:102CF00002C02196ECCFC701DF91CF911F910F91B8
:102D0000FF90EF90DF90CF900895FC01538D448D9C
:102D1000252F30E0842F90E0821B930B541710F086
:102D2000CF96089501970895FC01918D828D981793
:102D300061F0828DDF01A80FB11D5D968C91928D9F
:102D40009F5F9F73928F90E008958FEF9FEF08959C
:102D5000FC01918D828D981731F0828DE80FF11D65
:102D6000858D90E008958FEF9FEF0895FC01918D80
:102D7000228D892F90E0805C9F4F821B91098F7379
:102D80009927089586EE94E00E94B61621E0892BDB
:102D900009F420E0822F0895FC01848DDF01A80F43
:102DA000B11DA35ABF4F2C91848D90E001968F7373
:102DB0009927848FA689B7892C93A089B1898C9192
:102DC00080648C93938D848D981306C00288F38958
:102DD000E02D80818F7D80830895EF92FF920F9385
:102DE0001F93CF93DF93EC0181E0888F9B8D8C8DB7
:102DF000981305C0E889F989808185FD24C0F62EE5
:102E00000B8D10E00F5F1F4F0F731127E02E8C8D7D
:102E1000E8120CC00FB607FCFACFE889F989808167
:102E200085FFF5CFCE010E94CC16F1CF8B8DFE0130
:102E3000E80FF11DE35AFF4FF0820B8FEA89FB89FF
:102E40008081806207C0EE89FF896083E889F98903
:102E500080818064808381E090E0DF91CF911F9139
:102E60000F91FF90EF900895CF93DF93EC01888D41
:102E70008823C9F0EA89FB89808185FD05C0A8897E
:102E8000B9898C9186FD0FC00FB607FCF5CF808104
:102E900085FFF2CFA889B9898C9185FFEDCFCE014E
:102EA0000E94CC16E7CFDF91CF91089580E090E0AB
:102EB000892B29F00E94C21681110C9400000895FC
:102EC0000895DC011696ED91FC91179712968C915E
:102ED000481B477081E090E001C0880F4A95EAF7EF
:102EE000E60FF11D3081222311F0832B02C0809563
:102EF000832380830895FB014181DC0112962C918C
:102F00001297421768F013962C911397241740F0EC
:102F1000608115962C91621718F424810C94611726
:102F20000895FC0180819281980F928321819217EC
:102F300060F494819F5F94839381890F821710F0CE
:102F40008FEF820F838381E0089580E00895FC0174
:102F500012828081815083831482089580E00895D5
:102F60000B96FC01849108950A96FC0184910895C2
:102F7000FC01849108950E94B817882321F08230C3
:102F800011F083E0089586E00895FC01E60FF11D3D
:102F9000849190E0982F88273196E4918E0F911DAF
:102FA000089568E00C94C51766E00C94C5170E945C
:102FB00076398F929F92AF92BF92CF92DF92FF921B
:102FC0000F931F93CF93DF9300D0CDB7DEB76C0183
:102FD0008B01F42E490120E1421709F467C0241740
:102FE00000F13AE0431729F18FE0481369C041E04E
:102FF000C6010E945C1E40E0B801C6010E94531E3B
:1030000041E8B801C6010E944A1EF4014081B8019E
:10301000C6010E944A1E40E0B801C6010E945C1E23
:1030200008C1A1E14A1709F444C0B5E14B1791F07A
:1030300047C0DB011496ED91FC91159720E030E03C
:1030400042E061E0099547EE5BE2B801C6010E94EB
:10305000651E36C0FB01A280B3804FED5BE20E948B
:10306000651ED50114964C91406BB801C6010E94B3
:103070004A1E41E0B801C6010E94531EF501268197
:103080003781D8011496ED91FC911597D5011596CD
:103090004C9166E0C6010995811102C080E0CAC06A
:1030A00040E0B801C6010E945C1E0AC046ED5BE22A
:1030B00002C04BEC5BE2B801C6010E94651EB9C0BC
:1030C000D80112960D911C911397B2E3FB1609F4E7
:1030D00074C0BF15B8F0E5E1FE1609F47BC0F7E156
:1030E000FF1609F48DC024E1F212A3C0D801169690
:1030F000ED91FC91179715968C919F01280F311D2A
:10310000C90160C036E4F31609F48AC087E4F816F2
:1031100009F48AC0ABE3FA128CC0F4018181938177
:10312000913029F0933031F4482F885004C048E0A2
:10313000480F01C0482F21E0D80113963C91381761
:1031400008F420E031E0F8015281451708F430E03E
:1031500051E0481708F050E0822F852B382319F4EE
:10316000252309F466C0D4011296FC90913051F0E9
:1031700030F0923049F0933051F42FEF09C020E045
:1031800031E007C021E004C020E03FEF02C020E0B2
:1031900030E0F7FE08C0B401C8012A8339830E94D9
:1031A0007B1739812A81F4018081830F808381819B
:1031B000820F8183FF0C69F73CC0B401C8010E94F3
:1031C0007B1737C01192E817F907E1F7C8010E9491
:1031D000A7172FC0C8010E949117882309F45ECF5A
:1031E000D8011696ED91FC91179715968C919F0139
:1031F000280F311DC9011192E817F907E1F719C02D
:10320000D4011C92F801828111968C9311978581CB
:10321000815012968C931297838113968C9309C0D8
:10322000D80115968C9103C0D80111968C91F401A8
:10323000808381E00F900F90DF91CF911F910F91CC
:10324000FF90DF90CF90BF90AF909F908F900895A8
:103250001F920F920FB60F9211242F933F934F930B
:103260005F936F937F938F939F93AF93BF93EF93EE
:10327000FF9386EE94E00E94CC16FF91EF91BF91F0
:10328000AF919F918F917F916F915F914F913F91FE
:103290002F910F900FBE0F901F9018951F920F92B5
:1032A0000FB60F9211242F938F939F93EF93FF9359
:1032B000E091F604F091F7048081E091FC04F09134
:1032C000FD0482FD12C090818091FF048F5F8F7397
:1032D00020910005821751F0E091FF04F0E0EA51DF
:1032E000FB4F958F8093FF0401C08081FF91EF9188
:1032F0009F918F912F910F900FBE0F901F90189557
:1033000090E0FC01E35FF34D3491FC01E75BF34D8A
:103310002491FC01EB5CF34DE491EE2309F43BC0F6
:10332000332339F1333091F038F43130A9F03230B1
:1033300001F584B58F7D12C0373091F03830A1F09F
:103340003430B9F4809180008F7D03C0809180007B
:103350008F77809380000DC084B58F7784BD09C0BE
:103360008091B0008F7703C08091B0008F7D8093F3
:10337000B000F0E0EE0FFF1FEF5DF34DA591B491AB
:103380008FB7F894EC91611103C020952E2301C0F2
:103390002E2B2C938FBF08958E3008F08E5087709F
:1033A000806480937C0080917A00806480937A00AE
:1033B00080917A0086FDFCCF809178002091790081
:1033C00090E0922B08953FB7F8948091E602909197
:1033D000E702A091E802B091E90226B5A89B05C0DA
:1033E0002F3F19F00196A11DB11D3FBFBA2FA92F84
:1033F000982F8827820F911DA11DB11DBC01CD0101
:1034000042E0660F771F881F991F4A95D1F70895EC
:103410008F929F92AF92BF92CF92DF92EF92FF92E4
:103420006B017C010E94E3194B015C01C114D104C2
:10343000E104F104F1F00E94E319DC01CB018819E9
:103440009909AA09BB09883E9340A105B10570F30B
:1034500021E0C21AD108E108F10888EE880E83E065
:10346000981EA11CB11CC114D104E104F10419F788
:10347000DDCFFF90EF90DF90CF90BF90AF909F9007
:103480008F9008952FB7F8946091E2027091E30253
:103490008091E4029091E5022FBF08951F920F9250
:1034A0000FB60F9211242F933F938F939F93AF9357
:1034B000BF938091E2029091E302A091E402B09167
:1034C000E5023091E10223E0230F2D3720F401962D
:1034D000A11DB11D05C026E8230F0296A11DB11D37
:1034E0002093E1028093E2029093E302A093E4022E
:1034F000B093E5028091E6029091E702A091E80284
:10350000B091E9020196A11DB11D8093E60290934E
:10351000E702A093E802B093E902BF91AF919F91B7
:103520008F913F912F910F900FBE0F901F90189584
:10353000DB01ED91FC910994EF92FF920F931F93A1
:10354000CF93DF931F92CDB7DEB78C01DC011296CB
:10355000ED90FC901397D196ED91FC91D29782E07B
:10356000099520E030E04AE0B701C8010E94981AAE
:10357000F82ED801D196ED91FC91D29783E0099570
:10358000D801D196ED91FC91D29780E00995FF206A
:10359000A1F1F801628173819E012F5F3F4F46E4E4
:1035A000C8010E94981A8981D8018C9312966D9156
:1035B0007C9113979E012F5F3F4F47E4C8010E9403
:1035C000981A8981F80181836281738120E030E05B
:1035D00048E4C8010E94981AD8011B968C931B9747
:1035E00098012D5C3F4F12966D917C91139747E1A6
:1035F000C8010E94981A81E001C080E00F90DF911D
:10360000CF911F910F91FF90EF9008954F925F928D
:103610006F927F928F929F92AF92BF92CF92DF92E2
:10362000EF92FF920F931F93CF93DF931F92CDB72B
:10363000DEB72C01E62EF42EC22EDC0114960D917D
:103640001C911597C8010E94B817D82EF2018481E9
:1036500095810E94BB17982EF1E0DF1203C02FE086
:10366000A22E02C0AA24AA94D20114968D919C91F4
:1036700015970E94B417D82EF201848195810E947B
:10368000B017B82ED20114968D919C9115970E9477
:10369000D117B0E6BC1538F4009729F0080F191FB0
:1036A00091E6D92E11C0F201848195810E94D41730
:1036B000F0E4FC1538F4009729F0080F191F81E495
:1036C000D82E02C00F5E1F4FBC1480F4D20150965A
:1036D0001C92509753961C92539754961C92549751
:1036E00051961C92519752961C92A0C0BD1470F333
:1036F000892D90E0F80124912F3F19F40F5F1F4F9F
:103700005AC0DC104FC0D20114968D919C91159730
:103710000E94B81798012F5F3F4FF801882311F0DE
:103720008230E1F48491D20153968C935397F9013E
:10373000249154962C935497F8013396E491509623
:10374000EC935097F8013496E4915196EC9351978D
:10375000F8013596E4915296EC9320C08491982F0D
:103760009F709250D20152969C93529782958F707F
:1037700051968C935197F9012491822F8F70549612
:103780008C93549722952F7053962C935397F8014E
:103790003296E491E295EF705096EC930115110585
:1037A00079F444C0F8013296E491EA219C012E0F8D
:1037B000311D020F131FDB1409F488CFD3949ACF65
:1037C000F201848195810E94BB17D20153963C91EE
:1037D000539754962C91549751965C9151975296C9
:1037E0009C915297920FF91A9FEF920F9F0DD496CA
:1037F0004C91D497D6966C916F1518F0941728F4C5
:1038000002C0941780F09F1570F4E50E9FEF930FA0
:103810009E0DD201D3964C91D397D5965C915E15AF
:1038200038F4941738F4F20180893FC080E03DC03D
:10383000941710F49E15B8F7080F111D395F732EF9
:103840007694769476946F2C620E5201FCE1AF0E62
:10385000B11C872C912CF61431F35E2D68018C2D50
:10386000801B8715F0F4F6018491D20112966D91B8
:103870007C9113975C965C935C975D96FC925D9748
:103880005F961C925F975E968C9395014BE3C20105
:1038900059830E94981ABFEFCB1ADB0A5981585FEF
:1038A000DECF080D191DF394D6CF0F90DF91CF9185
:1038B0001F910F91FF90EF90DF90CF90BF90AF904E
:1038C0009F908F907F906F905F904F9008952EE91A
:1038D0003FE0009729F0F9013197F1F70197F9CF0F
:1038E000089584E98093BC0064E080E10C94211E7B
:1038F000CF938093BB0084E88093BC0063E080E8B2
:103900000E94211EC82F882389F08091A506C82F08
:10391000C27081FD0AC08091B900887F883229F089
:1039200063E082E00E94181E01C0C1E08C2FCF919D
:103930000895109235031092340308958093A506DC
:103940001092B90084FF02C08CE001C088E480932B
:10395000B8000C94991C85ED8093BC008091BC004C
:1039600084FDFCCF1092A305089540910D03262FEE
:1039700030E0240F311D21323105DCF42091A30504
:103980002430C9F4FC0180E090E0861758F43091AF
:103990000D032191DC01A551BD4FA30FB11D2C9347
:1039A0000196F3CF80910D03680F60930D0380E0C3
:1039B000089581E0089582E008950895E091A705B3
:1039C0008091A605E81730F4F0E0E05BFD4F8081C0
:1039D00090E008958FEF9FEF08959091A705809153
:1039E000A605981750F4E92FF0E0E05BFD4F208129
:1039F00030E09F5F9093A70502C02FEF3FEFC90112
:103A000008958091A60590E02091A705821B910959
:103A10000895CF92DF92EF92FF920F931F93CF936F
:103A2000DF937C01262F972F8A0180915A038823E8
:103A300091F0C62FD72F6E01C40ED51ECC15DD0513
:103A400071F06991D701ED91FC910190F081E02D29
:103A5000C7010995F3CF642F822F0E94B51CC801BE
:103A6000DF91CF911F910F91FF90EF90DF90CF905A
:103A70000895CF93DF931F92CDB7DEB7698320916E
:103A80005A032223D1F02091A405203240F021E0F6
:103A900030E0FC013383228380E090E015C0809108
:103AA000A505E82FF0E0E55AFC4F998190838F5FE0
:103AB0008093A5058093A40505C061E0CE01019621
:103AC0000E94B51C81E090E00F90DF91CF910895A6
:103AD000089580E090E00895CF93DF93FC0123A543
:103AE000222379F0EC010E94F327811102C080E0CB
:103AF00009C08EA1811180E40E94781C8823B9F34B
:103B00001BA681E0DF91CF9108950F931F93CF9370
:103B1000C42F89016330C1F050F4613081F062300C
:103B200009F048C0FC0146A321E023A743C066304A
:103B300011F1673079F1653009F03CC00EC0FC012D
:103B400086A50E949E1C36C0FC0116A221E023A778
:103B5000411130C00E94711C2DC00E946C1D81114A
:103B600004C00E94711C80E026C08C2F0E94781C2B
:103B7000811120C0F6CF0E946C1D882391F3CC23C5
:103B8000C9F0F80181918F010E94781C882349F3C4
:103B9000C150F5CF0E946C1D882319F3CC2351F03E
:103BA000F80184910E94781C882329F00F5F1F4F31
:103BB000C150F4CF81E0CF911F910F910895CF9222
:103BC000DF92EF92FF920F931F93CF93DF931F9299
:103BD000CDB7DEB76C01DC01DC961C91DC97DB967F
:103BE0000C917C01B4E0EB0EF11CDC015996ED91D7
:103BF000FC915A97C70169830995482F410F298184
:103C0000602FC7010E94061BF60123AD082E000C91
:103C1000990B820F911D83AF81E090E00F90DF91AF
:103C2000CF911F910F91FF90EF90DF90CF9008956B
:103C300090913503911104C0809335036093340350
:103C400008951F93CF93DF9300D0CDB7DEB720ED5B
:103C500037E03A8329839091BC00982399F4298115
:103C60003A81232B51F48091A506182F127081FD03
:103C700009C081E00E94181E06C029813A812150A6
:103C80003109E7CF11E0812F0F900F90DF91CF9195
:103C90001F910895DB011496ED91FC91159720E09A
:103CA00030E065E00994DB011496ED91FC911597E5
:103CB00020E030E062E00994DB011496ED91FC9184
:103CC000159720E030E063E00994CF92DF92EF9205
:103CD000FF920F931F93CF93DF938C017B016A01B7
:103CE00080E0F601C49181110BC0CF3F09F44CC0B4
:103CF0004C2FB701C8010E944A1E811143C049C020
:103D0000CF3F11F44FEFF5CFCE3F09F444C0C03F91
:103D1000C8F5C03E38F04C2F4F70B701C8010E9463
:103D2000531E30C0C03D38F04C2F4F70B701C80152
:103D30000E945C1E27C0C03CF8F0D7011496ED919C
:103D4000FC91159720E030E040E064E0C80109955F
:103D5000C295C07FCE5FD0E0CE010E94671CD70124
:103D60001496ED91FC91159720E030E041E064E07D
:103D7000C8010995CE0104C0C7FD04C08C2F90E096
:103D80000E94671C80E001C081E0BFEFCB1ADB0A14
:103D9000A8CF80E001C081E0DF91CF911F910F910A
:103DA000FF90EF90DF90CF9008951F920F920FB683
:103DB0000F9211240F900FBE0F901F9018951F9215
:103DC0000F920FB60F9211242F933F934F935F934F
:103DD0006F937F938F939F93AF93BF93EF93FF93D3
:103DE0008091B900887F803609F49CC068F58832DC
:103DF00009F45BC090F4803109F454C038F488238E
:103E000009F4F6C0883009F44DC0F6C0883109F4D1
:103E10004CC0803209F45DC0EFC0803409F468C042
:103E200048F4803309F455C0883309F0E5C0809325
:103E30005903D8C0803509F44FC0883509F45DC0F6
:103E4000883409F0D9C0D6C0883909F4C7C0A8F4AD
:103E5000883709F467C038F4883609F463C08037BE
:103E600009F460C0C9C0883809F4B8C0803909F4C1
:103E70005FC0803809F0C0C05BC0803B09F486C0D9
:103E800038F4803A09F466C0883A09F47FC0B4C0B7
:103E9000803C09F4A7C0883C09F4A4C0883B09F41D
:103EA0008AC0AAC08091360310C0909158038091B7
:103EB0005703981770F5E091580381E08E0F8093B7
:103EC0005803F0E0E95CFC4F80818093BB0085ECF7
:103ED00086C0809359038EC0E091580381E08E0F15
:103EE000809358038091BB00F0E0E95CFC4F808335
:103EF00090915803809157036EC0E091580381E080
:103F00008E0F809358038091BB00F0E0E95CFC4F7A
:103F100080838091A20581116DC081E08093A1050D
:103F200084EA61C083E08093A30510923103CFCF70
:103F300080913103803208F051C0E091310381E07B
:103F40008E0F809331038091BB00F0E0EF5EFC4F59
:103F50008083BDCF85EC8093BC001092A305809137
:103F60003103803230F4E0913103F0E0EF5EFC4F3A
:103F700010826091310370E0E0910F03F091100323
:103F800081E193E009951092310336C084E080937B
:103F9000A30510920E0310920D03E0910B03F09114
:103FA0000C03099580910D03811105C081E0809378
:103FB0000D031092EB02E0910E0381E08E0F8093CF
:103FC0000E03F0E0E551FD4F80818093BB0090919E
:103FD0000E0380910D03981708F479CF85E880933C
:103FE000BC000AC085EC8093BC001092A30504C0FD
:103FF000109259030E94AB1CFF91EF91BF91AF91BA
:104000009F918F917F916F915F914F913F912F91F0
:104010000F900FBE0F901F9018958F929F92AF92A6
:10402000BF92CF92DF92EF92FF92CF93DF930097F0
:1040300041F14A015B01EC01C12CD12C7601C8147D
:10404000D904EA04FB04D1F0688186EE94E00E9472
:10405000ED1682E0C816D104E104F10440F0888135
:104060008F3F29F465E586EE94E00E94ED168FEF10
:10407000C81AD80AE80AF80A2196E1CFB601C701A2
:1040800004C06FEF7FEF8FEF9FEFDF91CF91FF9035
:10409000EF90DF90CF90BF90AF909F908F9008955A
:1040A0000F931F93FC01892B21F10281138124813D
:1040B00035810217130709F10217130740F4B901FC
:1040C000601B710B072E000C880B990B19C06081C7
:1040D0007181CB01A0E0B0E0021B130B012E000C9C
:1040E000220B330BBC01CD01601B710B820B930BB8
:1040F00007C06FEF7FEFCB0103C060E070E0CB0142
:104100001F910F910895CF92DF92EF92FF926A0173
:104110007B010097F9F028E2E2EDF3E0DF011D9268
:104120002A95E9F7BC0184ED93E00E947B39D09297
:10413000F503C092F40381E08093D3030E94421AF6
:104140006093F6037093F7038093F8039093F90359
:1041500080E001C08FEFFF90EF90DF90CF90089547
:10416000FC01892B51F088E0DF011D928A95E9F767
:104170008FEF8083818380E008958FEF08958F9281
:104180009F92AF92BF92CF92DF92EF92FF920F93E6
:104190001F93CF93DF93EB01009709F498C020970A
:1041A00009F495C0DC018D9190917C0390FB8824EB
:1041B00080F891FB992490F892FBAA24A0F893FB35
:1041C000222720F99091EA0290FBBB24B0F891FBE2
:1041D000CC24C0F892FBDD24D0F893FBEE24E0F869
:1041E00094FBFF24F0F895FB332730F996FB9927D1
:1041F00090F98D01402F4A1B481708F048C0F8017C
:1042000041918F0150E045315105A0F7FA01EA5A7A
:10421000FF4F0C943439488140938305882483945C
:10422000E9CF49814093840599249394E3CF4A814F
:104230005B816C817D8140938505509386056093F9
:10424000870570938805AA24A394D4CF4E815F81FB
:10425000688579854093890550938A0560938B051D
:1042600070938C0521E0C6CFCC24C394C3CFDD244A
:10427000D394C0CFEE24E394BDCFFF24F394BACF00
:1042800031E0B8CF91E0B6CFBB24B394B3CF8091E7
:104290007C0380FA80F990FA81F9A0FA82F920FB78
:1042A00083F980937C038091EA02B0FA80F9C0FA26
:1042B00081F9D0FA82F9E0FA83F9F0FA84F930FB57
:1042C00085F990FB86F98093EA0280E001C08FEFC8
:1042D000DF91CF911F910F91FF90EF90DF90CF90E2
:1042E000BF90AF909F908F9008950F931F93FC0104
:1042F00002E010E020E030E080E041505109610927
:104300007109041715072607370750F4DF01A00FBE
:10431000B11F9C91890F0F5F1F4F2F4F3F4FF1CF60
:104320001F910F910895CF93DF93EC0180910A06BE
:1043300090910B06029709F5C130D10569F024F47C
:104340002097D9F460E009C0C230D10561F0C330D4
:10435000D10599F460E008C061E080910E060E94EA
:10436000801961E006C061E080910E060E9480190C
:1043700060E0809110060E94801980910A06909159
:104380000B06049709F03FC0C130D105B9F04CF4D9
:104390002097C9F561E080910E060E94801960E0C7
:1043A00013C0C230D105D9F0C330D10561F561E049
:1043B00080910E060E94801960E017C060E0809135
:1043C0000E060E94801961E0809110060E948019FB
:1043D00061E0809112060E94801960E010C060E0E8
:1043E00080910E060E94801961E0809110060E9463
:1043F000801960E0809112060E94801961E080912E
:1044000014060E94801980910A0690910B06059768
:1044100009F086C0CA30D10508F082C0FE01E55916
:10442000FF4F0C94343960E080910E060E94801991
:1044300061E061C060E080910E060E94801961E039
:10444000809110060E94801960E05AC060E080915F
:104450000E060E94801961E0809110060E9480196A
:1044600060E0809112060E94801961E04EC060E019
:1044700001C061E080910E060E94801961E006C0D3
:1044800061E080910E060E94801960E08091100624
:104490000E94801960E00BC061E080910E060E94CE
:1044A000801960E0809110060E94801961E080917F
:1044B00012060E94801961E010C061E080910E0632
:1044C0000E94801960E0809110060E94801961E0CE
:1044D000809112060E94801960E0809114060E946B
:1044E000801960E017C061E001C060E080910E06B5
:1044F0000E94801960E0809110060E94801961E09E
:10450000809112060E94801960E0809114060E943A
:10451000801961E080911606DF91CF910C9480198B
:10452000DF91CF910895009769F0FC010190002080
:10453000E9F73197AF01481B590BBC0184EB95E0BB
:104540000C945A1680E090E008954F925F926F921B
:104550007F928F929F92AF92BF92EF92FF920F93B2
:104560001F93CF93DF93EC0197FF04C0CC27DD2787
:10457000C81BD90B181619063CF481E090E0909303
:1045800003068093020606C0892B21F010920306D1
:104590001092020604E010E08AE0E82EF12C209749
:1045A00009F468C00E94E3198090180690901906DB
:1045B000A0901A06B0901B062B013C014818590820
:1045C0006A087B088090040690900506A090060675
:1045D000B0900706481459046A047B0400F3609302
:1045E00018067093190680931A0690931B06209163
:1045F00002063091030680910C0690910D06213041
:10460000310589F4019690930D0680930C06209154
:1046100008063091090682179307C1F410920D061F
:1046200010920C0613C0892B41F4809108069091DA
:10463000090690930D0680930C0680910C069091CC
:104640000D06019790930D0680930C0621972091FB
:104650000A0630910B0680910C0690910D062530CC
:10466000310511F4B70101C0B8010E94DF380E9482
:10467000932195CFDF91CF911F910F91FF90EF90F4
:10468000BF90AF909F908F907F906F905F904F9072
:10469000089590E0FC01E75BF34D2491FC01EB5C95
:1046A000F34D8491882399F090E0880F991FFC01C5
:1046B000E55DF34DA591B491FC01EF5DF34D85915E
:1046C00094918FB7F894EC91E22BEC938FBF0895FF
:1046D0000F931F93CF93DF938C01C4EBD5E0EDA92B
:1046E000FEA982E00995EDA9FEA981E0099520E0E7
:1046F00030E044E1B80188EB95E00E94981A2BEE77
:1047000035E047E1B80188EB95E00E94981AEDA9E1
:10471000FEA980E0DF91CF911F910F910994CF9274
:10472000DF92FF920F931F93CF93DF9300D0CDB70B
:10473000DEB7F82E062FE091CD05F091CE0588EB7F
:1047400095E049835A830995080F4981C42E5A81FF
:10475000D52E10E0F60121916F01222349F0402F60
:104760006F2D88EB95E00E94061BF80E180FF2CF14
:10477000812F0F900F90DF91CF911F910F91FF909C
:10478000DF90CF9008958F929F92AF92BF920F9338
:104790001F93CF93DF93CDB7DEB7A1970FB6F894F1
:1047A000DEBF0FBECDBF19A2423008F44AE08E0131
:1047B0000F5D1F4F842E912CA12CB12CA5019401CB
:1047C0000E94F338E62FB901CA0101501109EA30FD
:1047D00014F4E05D01C0E95CD801EC93232B242B99
:1047E000252B61F7C8010E949322A1960FB6F89479
:1047F000DEBF0FBECDBFDF91CF911F910F91BF9054
:10480000AF909F908F9008954F925F926F927F929A
:104810008F929F92AF92BF92CF92DF92EF92FF92D0
:104820006B017C01B42E9B01AC010E94DA38882315
:1048300019F084E492E027C026013701E89477F864
:104840002FEF3FEF4FE75FE7C301B2010E94DA3875
:1048500081110DC02FEF3FEF4FE75FE7C301B201BA
:104860000E94103718161CF488E492E00CC02FEF59
:104870003FEF4FE75FE4C701B6010E9468381816A2
:1048800084F48CE492E0FF90EF90DF90CF90BF90A3
:10489000AF909F908F907F906F905F904F900C940F
:1048A00093222FEF3FEF4FE75FECC701B6010E9465
:1048B000103787FDE6CF20E030E0A901C701B6013F
:1048C0000E94103787FF11C0E091B405F091B50543
:1048D0000190F081E02D6DE284EB95E009954C01AB
:1048E000F7FAF094F7F8F09402C0812C912CA12CE7
:1048F00060E070E080E09FE3AB1441F020E030E046
:1049000040E251E40E941537A394F6CF9B01AC011D
:10491000C701B6010E94A4362B013C010E948737D3
:104920006B017C010E94B6379B01AC01C301B2014F
:104930000E94A3362B013C014AE0C701B6010E9448
:10494000C3237C01E80CF91CBB2069F0E091B4059D
:10495000F091B5050190F081E02D6EE284EB95E0D9
:104960000995E80EF91EDB2CDD2021F120E030E076
:1049700040E251E4C301B2010E946D382B013C01B9
:104980000E9487374B01A12CB12C4AE0C501B4012C
:104990000E94C323E80EF91EC501B4010E94B63778
:1049A0009B01AC01C301B2010E94A3362B013C0163
:1049B000DA94DACFC701FF90EF90DF90CF90BF90ED
:1049C000AF909F908F907F906F905F904F900895E1
:1049D0002091BC053091BD052817390709F444C062
:1049E0009093BD058093BC05009709F437C02091D2
:1049F000CF05FC01211107C03596E491E093D00565
:104A0000FC013C960FC0213039F43F96E491E093CD
:104A1000D005FC01709606C03D96E491E093D00568
:104A2000FC013E9684918093D1058091D005082E9B
:104A3000000C990B2091D105821B910927FD9395BC
:104A40002091D205203441F0829FC001112426E03C
:104A5000969587952A95E1F78093D3058EEA97E19D
:104A60009093CE058093CD0508950F931F93CF9318
:104A7000E091C605F091C705309719F088EB95E0F5
:104A800009950091BA051091BB05E091E905F091F7
:104A9000EA0582E00995E091E905F091EA0581E0F7
:104AA000099520E030E045E1B80188EB95E00E94EF
:104AB000981AC82F882341F02BEE35E047E1B80162
:104AC00088EB95E00E94981AE091E905F091EA05DB
:104AD00080E009958C2FCF911F910F910895382F69
:104AE0002091A40590917B03213208F049C0809168
:104AF000A3058111FCCF42E04093A3053093A205AA
:104B00003FEF309359031092580320935703ABE5BE
:104B1000B3E047E353E0FA013E2F341B321718F499
:104B20003D913193F9CF1092360320913603990FBE
:104B3000922B909336039091A105913061F41092DD
:104B4000A105909136039093BB009091BC0093FD1A
:104B5000F8CF95EC01C095EE9093BC009091A30521
:104B60009230E1F3909159039F3F79F0809159037E
:104B7000803241F080915903803331F084E005C0E8
:104B800081E003C082E001C083E01092A50510928D
:104B9000A40510925A0308951F93CF93DF93CDB7C6
:104BA000DEB72C970FB6F894DEBF0FBECDBF26E858
:104BB00033E0232B21F1182FCE0101960E94B02063
:104BC00082E18D8380918B038E831B8686E08C87A8
:104BD0008B859C859C838B8319874AE050E060E03D
:104BE00070E0CE0101960E9475218A874AE050E06C
:104BF00060E070E0CE0101960E940D2003C06FEFCF
:104C00007FEFCB012C960FB6F894DEBF0FBECDBF61
:104C1000DF91CF911F910895CF93DF93CDB7DEB78A
:104C20002B970FB6F894DEBF0FBECDBF86E893E09A
:104C3000892B29F188E0E6E8F3E0DE011196019086
:104C40000D928A95E1F78D818F5F8D831A8685E0BD
:104C50008B878A859B859C838B8349E050E060E04D
:104C600070E0CE0101960E947521898749E050E0ED
:104C700060E070E0CE0101960E940D2003C06FEF4E
:104C80007FEFCB012B960FB6F894DEBF0FBECDBFE2
:104C9000DF91CF910895CF92DF92EF92FF92CF9361
:104CA000DF93CDB7DEB767970FB6F894DEBF0FBEC0
:104CB000CDBF82E594E0892B09F44FC0CE01019667
:104CC0000E94B02085E08D838091CA039091CB0330
:104CD000A091CC03B091CD03AC01BD014F5F5F4FFC
:104CE0006F4F7F4F4093CA035093CB036093CC0325
:104CF0007093CD038E8384E089871E8A81E18F8B38
:104D00008E899F899C838B838BE0E2E5F4E0DE0152
:104D10001A9601900D928A95E1F745E150E060E026
:104D200070E0CE0101960E9475218D8B45E150E027
:104D300060E070E0CE0101960E940D206B017C01C5
:104D400097FD0DC045E150E060E070E0CE010196B6
:104D50000E948320B601C70106C06FEF01C06EEF4D
:104D60007FEF8FEF9FEF67960FB6F894DEBF0FBE11
:104D7000CDBFDF91CF91FF90EF90DF90CF9008955E
:104D80004F925F926F927F928F929F92AF92BF925B
:104D9000CF92DF92EF92FF920F931F93CF93DF9307
:104DA000009709F46AC0EB017C01C0907F03D090AA
:104DB000800380918103909182034B01A12CB12C3F
:104DC000C816D90658F48DE793E00E945020861645
:104DD0009706A806B906ECF0EB011BC000917D0315
:104DE00010917E038091830390918403A80160E079
:104DF00070E09601281B390B2901330F66087708EC
:104E0000441955096609770984169506A606B7065A
:104E1000A4F4AE01B601C7010E947B3980917F03E3
:104E2000909180038C0F9D1F9093800380937F034C
:104E3000BE01DD0F880B990B23C08C199D09080F4B
:104E4000191FA801B601C7010E947B398091830315
:104E5000909184039093800380937F03BE01601B35
:104E6000710BC701800F911F0E94C026600F711F38
:104E7000072E000C880B990B03C06FEF7FEFCB015F
:104E8000DF91CF911F910F91FF90EF90DF90CF9026
:104E9000BF90AF909F908F907F906F905F904F905A
:104EA0000895CF93DF93CDB7DEB728970FB6F89468
:104EB000DEBF0FBECDBFFC01892B09F447C082E5E0
:104EC00094E0892B09F442C01092520480818093AF
:104ED00052049181990F892B80935204828180938F
:104EE000530486818093540482858093550486857B
:104EF000809356048289938998878F8388858983D4
:104F00008F818A8389819A81909358048093570472
:104F1000868997899E838D838E8189838D818A83FB
:104F200089819A8190935A0480935904828D938D3C
:104F30009C838B838C8189838B818A8389819A81ED
:104F400090935C0480935B0480E001C08FEF28960F
:104F50000FB6F894DEBF0FBECDBFDF91CF9108959D
:104F600086E893E0892B91F08091D80390E0019638
:104F700020918A0330E08217930751F488E2E2ED32
:104F8000F3E0DF011D928A95E9F702C08FEF0895E3
:104F900080E0089582319105A9F044F4419709F524
:104FA00090917C03292F21709E7F19C08331910538
:104FB00081F04497B1F490917C0393FB222720F970
:104FC000977F0DC090917C0391FB222720F99D7F54
:104FD00006C090917C0392FB222720F99B7F90933F
:104FE0007C03822F0895CF9384EA8093BC0061E014
:104FF00080E80E94211E882359F08091B900887FA3
:10500000883041F0803131F061E082E00E94181E6A
:10501000C0E01DC088E78093BB0084E88093BC009B
:1050200062E080E80E94211E882391F38091A5060A
:10503000C82FC27081FD0AC08091B900887F883175
:1050400029F062E082E00E94181E01C0C1E08C2FAE
:10505000CF910895CF93DF93CDB7DEB7C75CD10969
:105060000FB6F894DEBF0FBECDBF789484B58260D2
:1050700084BD84B5816084BD85B5826085BD85B5FC
:10508000816085BD80916E00816080936E0010927A
:1050900081008091810082608093810080918100F5
:1050A0008160809381008091800081608093800086
:1050B0008091B10084608093B1008091B0008160E4
:1050C0008093B00080917A00846080937A00809110
:1050D0007A00826080937A0080917A008160809368
:1050E0007A0080917A00806880937A001092C100E3
:1050F00087E00E9449232091080630910906032E7B
:10510000000C440B550B60E077E883E993E00E94C4
:105110001539CA01B9012CE330E040E050E00E94AB
:1051200015392093040630930506409306065093E4
:1051300007068E010F5F1F4FC8010E94B0208BE051
:105140008D838091CA039091CB03A091CC03B09141
:10515000CD03AC01BD014F5F5F4F6F4F7F4F409359
:10516000CA035093CB036093CC037093CD038E831B
:10517000E5961FAEE59785E0E6968FAFE697E69653
:105180008EAD9FADE6979C838B8349E050E060E055
:1051900070E0C8010E947521898749E050E060E015
:1051A00070E0C8010E940D2049E050E060E070E02E
:1051B000C8010E9483208091F105811107C081E020
:1051C0008093F10588EB95E00E949C1A8091BA05C6
:1051D0009091BB050E946823EAE5FE2E8BE49DE1D9
:1051E0000E94E82440E951E06AE083E20E948F23B4
:1051F0008DE999E00E94E82448E951E06EE187E0FA
:105200000E948F238AEE90E00E94E8244CEA51E04D
:1052100062E385E00E948F23F092EF0582E38093A2
:10522000F00560911D0670911E0680911F069091F9
:10523000200642E00E9404244FEB51E06CE385E03D
:105240000E948F23F092EF058CE38093F00560912C
:10525000210670912206809123069091240642E057
:105260000E9404240E9435258111B8CFE091F604F4
:10527000F091F70482E08083E091F204F091F3046E
:105280001082E091F404F091F5048FEC8083109289
:10529000FE04E091FA04F091FB0486E08083E09143
:1052A000F804F091F904808180618083E091F80432
:1052B000F091F904808188608083E091F804F09196
:1052C000F904808180688083E091F804F091F9040A
:1052D00080818F7D808380E490E090937E03809333
:1052E0007D0380E792E090938403809383039093FF
:1052F000800380937F03909382038093810381E6F0
:1053000091E0E5E8F3E0DF019C011D92215030407F
:10531000E1F744E750E04C0F5D1F485F5F4FCB5310
:10532000DF4F59834883C55CD0408091DF02909164
:10533000E002803B910559F08B3B910511F0892BE0
:10534000A9F580EB90E09093E0028093DF0281E189
:1053500090E00E94CA27882369F120918905309145
:105360008A0540918B0550918C052093B0023093B3
:10537000B1024093B2025093B302A8E5B2E00E949A
:1053800048396093D1027093D2028093D3029093F4
:10539000D40260ED77E080E090E00E94081A8BEB89
:1053A00090E09093E0028093DF0204C01092E0024C
:1053B0001092DF028091DD029091DE02833C910524
:1053C00061F08D3C9105B1F0892B09F0AFC083EC01
:1053D00090E09093DE028093DD028091D102909163
:1053E000D202A091D302B091D402892B8A2B8B2BAD
:1053F000A1F4A0C08091D1029091D202A091D302D9
:10540000B091D4020297A109B1098093D10290937F
:10541000D202A093D302B093D4028091D102909192
:10542000D202A091D302B091D402892B8A2B8B2B6C
:1054300009F471C08091F105811107C081E080936A
:10544000F10588EB95E00E949C1A8091BA05909135
:10545000BB050E94682368E2E62E77E3F72E8BE413
:105460009DE10E94E8244FEC51E06EE184E10E944E
:105470008F238EE193E10E94E824E092EF05F09201
:10548000F0056091D1027091D2028091D302909187
:10549000D4022AE030E040E050E00E94F338CA0134
:1054A000B9014AE00E94C3234CED51E067E38AE56D
:1054B0000E948F230E9435258111D1CF64E670E0D0
:1054C00080E090E00E94081A8091D1029091D2026F
:1054D000A091D302B091D4028093F6059093F70582
:1054E000A093F805B093F9058091F2059091F3052A
:1054F000A091F405B091F5058093950590939605DC
:10550000A0939705B09398058DEC90E09093DE0200
:105510008093DD020FC081E090E09093B50280930C
:10552000B4029093BB028093BA0251CF1092DE0274
:105530001092DD028091DB029091DC02009749F02D
:10554000883D910569F482E190E00E94CA27882392
:1055500039F088ED90E09093DC028093DB02F3CF8A
:105560008091D9029091DA02813E910569F0883EDE
:10557000910509F447C0892B09F06CC081EE90E0D9
:105580009093DA028093D9028091B4029091B5028F
:10559000019709F063C0C090FE05D090FF05E09030
:1055A0000006F0900106222733272C193D0930937D
:1055B000C1022093C002922F80E06DE270E00E9451
:1055C000DF38660F771F660F771FCB01770FAA0BA7
:1055D000BB0B8093BC029093BD02A093BE02B0931C
:1055E000BF02C901330FAA0BBB0BC80ED91EEA1E9E
:1055F000FB1EC092FE05D092FF05E0920006F092DD
:10560000010613C08091BC029091BD02A091BE0220
:10561000B091BF028896A11DB11D8093BC029093EA
:10562000BD02A093BE02B093BF028091BC029091D4
:10563000BD02A091BE02B091BF02B7FF9FCF88ED1F
:105640009FEF0E94A52288EE90E09093DA0280936B
:10565000D90204C01092DA021092D9028091D702C6
:105660009091D802823F910561F08F3F910589F0BA
:10567000892B09F00CC182EF90E09093D8028093BF
:10568000D7028091BA029091BB02019709F003C141
:1056900009C08091B6029091B70201969093B7022B
:1056A0008093B6028091B6029091B7020A971CF7D8
:1056B0002090B8023090B9023FE0231631040CF07C
:1056C000DBC08091C0029091C102FC01EC5BFE4FF7
:1056D0005081C454DF4F5883CC5BD040880F991F52
:1056E000FC01EA5DFE4F503291F480819181ACE281
:1056F000B1E08A9FB0018B9F700D9A9F700D1124AD
:10570000072E000C880B990B0E94081AA8C0208154
:105710003181ECE2F1E02E9FC0012F9F900D3E9F62
:10572000900D1124EEE0F1E0DE01AC58BF4F28E00F
:1057300001900D922A95E1F7E6E1F1E0D80120E130
:1057400001900D922A95E1F728EE33E0DC010E94EA
:105750004139CF53DF4F688379838A839B83C15C50
:10576000D0409E012C583F4FC654DF4F39832883C9
:10577000CA5BD0406801C654DF4FA881B981CA5BBB
:10578000D0408D91C654DF4FB983A883CA5BD04007
:10579000C454DF4F4881CC5BD040841799F052E06D
:1057A000C50ED11CC654DF4F28813981CA5BD04059
:1057B000CB53DF4F48815981C55CD0402417350752
:1057C000D1F64DC0D601ED90FC90C701880F991F0E
:1057D000880F991F9C0125503109C354DF4F39832D
:1057E0002883CD5BD0402701440C551C052C000CB0
:1057F00066087708812C912C5401CF53DF4F288104
:1058000039814A815B81C15CD04082169306A4062F
:10581000B5062CF661E087E00E94801932E0E316BD
:10582000F10440F0C354DF4F88819981CD5BD040B3
:105830000197F1F760E087E00E94801942E0E416EA
:10584000F10440F0C354DF4F88819981CD5BD04093
:105850000197F1F7840C951CA61CB71CCECF64E60B
:1058600070E080E090E00E94081AC10101969093D8
:10587000B9028093B8021CCF1092B7021092B60200
:105880008FEF90E09093D8028093D70204C01092DB
:10589000D8021092D7028091D5029091D60288301A
:1058A00041E09407A9F050F4892B09F0C5C088E0C5
:1058B00091E09093D6028093D5020AC08131A1E095
:1058C0009A0709F467C08831914009F48AC0B4C0CE
:1058D00083E190E00E94CA27882309F4B1C0809137
:1058E000850590918605A0918705B09188058093E4
:1058F000FA059093FB05A093FC05B093FD05C090BD
:10590000FE05D090FF05E0900006F09001069C0196
:105910002C193D093093C1022093C002922F80E0E0
:105920006DE270E00E94DF38660F771F660F771F09
:10593000CB01072E000CAA0BBB0B8093BC029093EB
:10594000BD02A093BE02B093BF02C901330FAA0BE0
:10595000BB0BC80ED91EEA1EFB1EC092FE05D092DC
:10596000FF05E0920006F0920106161617062CF1CC
:105970008091BC029091BD02A091BE02B091BF0285
:10598000B7FF5AC0B095A095909581959F4FAF4FA6
:10599000BF4F32C08091BC029091BD02A091BE0267
:1059A000B091BF028897A109B1098093BC0290937E
:1059B000BD02A093BE02B093BF028091BC02909141
:1059C000BD02A091BE02B091BF02181619061A06B8
:1059D0001B0674F688E290E00E94A52281E191E026
:1059E00026C08091BC029091BD02A091BE02B091F0
:1059F000BF028897A109B1098093BC029093BD02B0
:105A0000A093BE02B093BF028091BC029091BD02F0
:105A1000A091BE02B091BF02181619061A061B0605
:105A20005CF488ED9FEF0E94A52288E191E09093BD
:105A3000D6028093D50204C01092D6021092D502ED
:105A40007E01E9E0EE0EF11CF8011192EE15FF0562
:105A5000E1F7CC24C394C0925A038CE5D82ED0929F
:105A60007B031092A5051092A40581E00E946F258A
:105A7000C0925A03D0927B031092A5051092A40500
:105A800063E088EA95E00E94391D60E088EA95E0CD
:105A90000E94391D64E088EA95E00E94391D81E08A
:105AA0000E946F258111AFC08BEF98E10197F1F74C
:105AB0008091A3058111FCCF81E08093A3058093A1
:105AC000A2059FEF909359031092580397E090938B
:105AD00057038093360380913603886B8093360397
